S017000056656E64696E675F4D616368696E652E737265632E
S11300000C9434000C94A2010C9404020C9463022A
S11300100C9451000C9451000C9451000C94510018
S11300200C9451000C9451000C9451000C94510008
S11300300C9451000C9451000C9451000C945100F8
S11300400C9451000C9451000C9451000C945100E8
S11300500C945100EE05F905040645060F061A0630
S11300602506450630063B0611241FBECFE5D8E021
S1130070DEBFCDBF12E0A0E6B0E0E4EFF2E102C0E3
S113008005900D92AE34B107D9F722E0AEE4B2E0A8
S113009001C01D92A336B207E1F70E944C060C94EE
S11300A078090C94000092B39370282F207F922B30
S11300B092BB9098919A32E03A95F1F700C09198EA
S11300C0EFE8F1E03197F1F700C0000022B32370AC
S11300D0F0E18F9FC0011124822B82BB919A32E000
S11300E03A95F1F700C091988FE99FE00197F1F7F5
S11300F000C00000089583EF81BB8FE39CE9019762
S1130100F1F700C0000082E00E94530088E20E94E0
S113011053008CE00E94530086E00E94530081E06B
S11301200E9453008FE99FE00197F1F700C000009F
S1130130089592B39F70282F207F922B92BB909AA0
S1130140919A32E03A95F1F700C09198EFE8F1E026
S11301503197F1F700C0000022B32F70F0E18F9FB8
S1130160C0011124822B82BB919A32E03A95F1F7B7
S113017000C091988FE99FE00197F1F700C000005B
S11301800895CF93DF93EC018881882331F0219681
S11301900E94990089918111FBCFDF91CF9108953D
S11301A0CF93DF93EC018881882379F021960E9414
S11301B099002FE788E391E0215080409040E1F7D7
S11301C000C0000089918111F2CFDF91CF91089591
S11301D00F931F93CF93DF938C01EB0181E00E9477
S11301E0530082E00E945300C8010E94C10080ECC9
S11301F00E945300CE010E94C1002FEF84E39CE0D3
S1130200215080409040E1F700C00000DF91CF9181
S11302101F910F91089561E670E082E790E00E94DB
S1130220E8002FEF82E597E0215080409040E1F70D
S113023000C0000060E870E08EE890E00E94E800F2
S11302402FEF82E597E0215080409040E1F700C015
S1130250000068E970E087EA90E00E94E8002FEF70
S113026082E597E0215080409040E1F700C0000013
S113027061EB70E08EEB90E00E94E8002FEF82E5E6
S113028097E0215080409040E1F700C0000068EC06
S113029070E086ED90E00E94E8002FEF82E597E0A1
S11302A0215080409040E1F700C0000060EE70E013
S11302B08EEE90E00E94E8002FEF82E597E0215057
S11302C080409040E1F700C0000068EF70E08AE0F1
S11302D091E00E94E8002FEF82E597E021508040F2
S11302E09040E1F700C0000064E171E083E291E036
S11302F00E94E8002FEF82E597E021508040904073
S1130300E1F700C000006DE271E08BE391E00E9430
S1130310E8002FEF82E597E0215080409040E1F71C
S113032000C0000065E471E086E591E00E94E80009
S11303302FEF82E597E0215080409040E1F700C024
S1130340000008951F920F920FB60F9211240F937D
S11303501F932F933F934F935F936F937F938F9349
S11303609F93AF93BF93EF93FF93CF93DF93CDB757
S1130370DEB72A97DEBFCDBF80914F02813049F5A9
S113038080914E028B5F80934E021F928F9380E682
S113039091E09F938F938E010F5F1F4F1F930F93D5
S11303A00E948E0681E00E945300B80187E691E026
S11303B00E94E8002FE788E391E0215080409040BC
S11303C0E1F700C000000F900F900F900F900F9076
S11303D00F902A960FB6F894DEBF0FBECDBFDF9103
S11303E0CF91FF91EF91BF91AF919F918F917F91A9
S11303F06F915F914F913F912F911F910F910F90AA
S11304000FBE0F901F9018951F920F920FB60F9268
S113041011240F931F932F933F934F935F936F93E5
S11304207F938F939F93AF93BF93EF93FF93CF9358
S1130430DF93CDB7DEB72A97DEBFCDBF80914F02E1
S1130440813031F580914E02865F80934E021F9277
S11304508F9380E691E09F938F938E010F5F1F4FE0
S11304601F930F930E948E06B80180E791E00E94CB
S1130470E8002FE788E391E0215080409040E1F7C5
S113048000C000000F900F900F900F900F900F90EE
S11304902A960FB6F894DEBF0FBECDBFDF91CF9181
S11304A0FF91EF91BF91AF919F918F917F916F9148
S11304B05F914F913F912F911F910F910F900FBE1C
S11304C00F901F9018951F920F920FB60F92112440
S11304D00F931F932F933F934F935F936F937F9348
S11304E08F939F93AF93BF93EF93FF93CF93DF9338
S11304F0CDB7DEB72A97DEBFCDBF80914F028130E2
S113050031F580914E028C5E80934E021F928F9340
S113051080E691E09F938F938E010F5F1F4F1F938F
S11305200F930E948E06B80187E691E00E94E800CE
S11305302FE788E391E0215080409040E1F700C02C
S113054000000F900F900F900F900F900F902A962D
S11305500FB6F894DEBF0FBECDBFDF91CF91FF91F0
S1130560EF91BF91AF919F918F917F916F915F9127
S11305704F913F912F911F910F910F900FBE0F90AC
S11305801F9018950F931F93CF93DF938C01EB016A
S113059081E00E94530082E00E94530088E991E0C8
S11305A00E94C100C8010E94C10080EC0E94530057
S11305B08CE791E00E94C100CE010E94C100DF914E
S11305C0CF911F910F9108950F931F93CF93DF93B2
S11305D08C01EB0181E00E94530082E00E945300F1
S11305E085E891E00E94D000C8010E94D00080EC10
S11305F00E9453008BE891E00E94D000CE010E943B
S1130600D000DF91CF911F910F9108950E940B01AB
S113061081E00E94530082E00E94530082E991E04D
S11306200E94C10080EC0E94530010924E0281E0AF
S11306308093600010924F020895CF93DF93EC01F2
S113064068E870E00E947E06892B89F496E022E136
S11306508BB382278BBB3FEF49E688E131504040A2
S11306608040E1F700C00000915091F7D0C060EAEB
S113067070E0CE010E947E06892B89F496E022E286
S11306808BB382278BBB3FEF49E688E13150404072
S11306908040E1F700C00000915091F7B8C069EBC9
S11306A070E0CE010E947E06892B89F496E022E454
S11306B08BB382278BBB3FEF49E688E13150404042
S11306C08040E1F700C00000915091F7A0C060EDB8
S11306D070E0CE010E947E06892B89F496E024E125
S11306E08BB382278BBB3FEF49E688E13150404012
S11306F08040E1F700C00000915091F788C068EE97
S113070070E0CE010E947E06892B89F496E024E2F3
S11307108BB382278BBB3FEF49E688E131504040E1
S11307208040E1F700C00000915091F770C060E094
S113073071E0CE010E947E06892B89F496E024E4C0
S11307408BB382278BBB3FEF49E688E131504040B1
S11307508040E1F700C00000915091F758C06CE16F
S113076071E0CE010E947E06892B89F496E028E18F
S11307708BB382278BBB3FEF49E688E13150404081
S11307808040E1F700C00000915091F740C065E35C
S113079071E0CE010E947E06892B89F496E028E25E
S11307A08BB382278BBB3FEF49E688E13150404051
S11307B08040E1F700C00000915091F728C06DE43B
S11307C071E0CE010E947E06892B89F496E028E42C
S11307D08BB382278BBB3FEF49E688E13150404021
S11307E08040E1F700C00000915091F710C096E0FE
S11307F02EE78BB382278BBB3FE74CEF8AE0315067
S113080040408040E1F700C00000915091F7DF9133
S1130810CF910895EF92FF920F931F93CF93DF939D
S1130820CDB7DEB764970FB6F894DEBF0FBECDBF69
S11308307C018B012FEF34E38CE021503040804069
S1130840E1F700C0000081E080934F021F936F9393
S113085080E691E09F938F93CE0101969F938F93AF
S11308600E948E06C7010E941D0380914E0290E0F3
S11308700F900F900F900F900F900F90801791078B
S1130880F4F5B701CE0101960E94E4029FEF21EE38
S113089034E0915020403040E1F700C000008091E6
S11308A04E0290E08017910764F329C0BE01655F92
S11308B07F4F80EA91E00E94E8008FEF9DE329E4F6
S11308C0815090402040E1F700C0000063EB71E0EC
S11308D08DEB91E00E94E8003FEF8EE994E2315005
S11308E080409040E1F700C000000E94060322C04F
S11308F064EB71E087EC91E00E94E8001BC09C016E
S1130900201B310B89011F932F9380E691E09F9365
S11309108F93CE010B969F938F930E948E060F9018
S11309200F900F900F900F900F90101611060CF46B
S1130930BDCFDECF64960FB6F894DEBF0FBECDBF39
S1130940DF91CF911F910F91FF90EF900895CF9376
S1130950DF93CDB7DEB764970FB6F894DEBF0FBE52
S1130960CDBF60E572E0CE0101960E9487066EE578
S113097072E0CE0101960E947306BE016F5F7F4F45
S113098080ED91E00E94E8002FEF84E39CE0215089
S113099080409040E1F700C000006EED71E0CE01B0
S11309A001960E947E06892B69F461EE71E088E865
S11309B090E00E94C2026FE070E088E890E00E943C
S11309C00A04B8C068EE71E0CE0101960E947E066A
S11309D0892B69F46BEE71E080EA90E00E94C20218
S11309E069E170E080EA90E00E940A04A3C062EF2B
S11309F071E0CE0101960E947E06892B69F465EFB1
S1130A0071E089EB90E00E94C2026EE170E089EB34
S1130A1090E00E940A048EC06CEF71E0CE01019652
S1130A200E947E06892B69F46FEF71E080ED90E0FF
S1130A300E94C2026AE070E080ED90E00E940A0425
S1130A4079C066E072E0CE0101960E947E06892B91
S1130A5069F469E072E088EE90E00E94C2026CE002
S1130A6070E088EE90E00E940A0464C060E172E0E5
S1130A70CE0101960E947E06892B69F461EE71E035
S1130A8080E091E00E94C2026FE070E080E091E0BB
S1130A900E940A044FC063E172E0CE0101960E94F5
S1130AA07E06892B69F466E172E08CE191E00E9494
S1130AB0C20264E170E08CE191E00E940A043AC051
S1130AC06DE172E0CE0101960E947E06892B69F4E5
S1130AD061EE71E085E391E00E94C2026FE070E094
S1130AE085E391E00E940A0425C060E272E0CE0131
S1130AF001960E947E06892B69F463E272E08DE41C
S1130B0091E00E94C20262E170E08DE491E00E94F3
S1130B100A0410C06AE272E0CB010E94E8002FEFE1
S1130B2084E39CE0215080409040E1F700C0000045
S1130B300E94060364960FB6F894DEBF0FBECDBFC5
S1130B40DF91CF910895CF93DF93EC0161E372E0DD
S1130B500E947E06892B19F40E9406032DC063E3CC
S1130B6072E0CE010E947E06892B31F40E94A70414
S1130B7081E08093600020C080916000813079F42E
S1130B8010925002BE0180E592E00E94730680E557
S1130B9092E00E94C10082E0809360000DC0823028
S1130BA059F410925E02BE018EE592E00E94730633
S1130BB08EE592E00E94C100DF91CF910895E3B3E6
S1130BC0E0935C028E2F90E0FC013597EA30F1054A
S1130BD008F05BC0E65DFF4F0C946D068FE697E16D
S1130BE00197F1F700C0000087E492E00E94A3059A
S1130BF008958FE697E10197F1F700C0000089E4BA
S1130C0092E00E94A30508958FE697E10197F1F71A
S1130C1000C000008BE492E00E94A30508958FE6D3
S1130C2097E10197F1F700C0000083EF91E00E9483
S1130C30A30508958FE697E10197F1F700C000003E
S1130C408EE092E00E94A30508958FE697E1019754
S1130C50F1F700C000008FED91E00E94A305089514
S1130C608FE697E10197F1F700C0000081E392E07D
S1130C700E94A30508958FE697E10197F1F700C05C
S1130C80000083E392E00E94A3050895D09887E8CA
S1130C9086B980E487B9089585B78F6085BF84B726
S1130CA0806484BF8BB7806E8BBF78940E944606A5
S1130CB014BA15BA8AB38E6F8ABB0E947B000E9455
S1130CC006030E94DF052FEF83EC99E0215080405A
S1130CD09040E1F700C00000F4CFEE0FFF1F059035
S1130CE0F491E02D0994FB01DC010D900020E9F75B
S1130CF0119701900D920020E1F70895FB01DC01AA
S1130D008D91019080190110D9F3990B0895FB017D
S1130D10DC0101900D920020E1F70895AEE0B0E00F
S1130D20E4E9F6E00C944F090D891E8986E08C8372
S1130D301A8309838FEF9FE79E838D83AE01475EFD
S1130D405F4F6F89788DCE0101960E94B006EF81C6
S1130D50F885E00FF11F10822E96E4E00C946B09E5
S1130D60ABE0B0E0E6EBF6E00C9441096C017B01EA
S1130D708A01FC0117821682838181FFCCC1CE01D6
S1130D8001963C01F6019381F70193FD859193FF50
S1130D9081917F01882309F4BAC1853239F493FD26
S1130DA0859193FF81917F01853229F4B60190E00A
S1130DB00E94A708E7CF912C212C312CFFE1F315D9
S1130DC0D8F08B3279F038F4803279F08332A1F4A0
S1130DD0232D20611DC08D3261F0803369F4232DF1
S1130DE0216016C0832D8260382EE32DE4603E2EF0
S1130DF02AC0F32DF8601DC037FC2DC020ED280F4C
S1130E002A3040F08E32B9F436FC81C1232D20649F
S1130E10322E19C036FE06C08AE0989E200D112499
S1130E20922E11C0EAE02E9E200D1124222EF32DC5
S1130E30F0623F2E08C08C3621F4832D8068382E52
S1130E4002C0883641F4F70193FD859193FF8191A7
S1130E507F018111B3CF982F9F7D9554933028F44F
S1130E600C5F1F4F9FE399830DC0833631F08337A6
S1130E7071F0833509F059C021C0F801808189835C
S1130E800E5F1F4F88248394912C530113C02801B3
S1130E90F2E04F0E511CF801A080B18036FE03C071
S1130EA0692D70E002C06FEF7FEFC5010E949C08BE
S1130EB04C018201F32DFF773F2E16C0280122E05A
S1130EC0420E511CF801A080B18036FE03C0692D8A
S1130ED070E002C06FEF7FEFC5010E9491084C01E2
S1130EE0F32DF0683F2E820133FC1BC0822D90E06D
S1130EF088169906B0F4B60180E290E00E94A70833
S1130F002A94F4CFF50137FC859137FE81915F0176
S1130F10B60190E00E94A70821102A9421E0821AC9
S1130F2091088114910471F7E8C0843611F0893670
S1130F3041F5F80137FE07C0608171818281938198
S1130F400C5F1F4F08C060817181072E000C880B55
S1130F50990B0E5F1F4FF32DFF763F2E97FF09C0AD
S1130F6090958095709561957F4F8F4F9F4FF06856
S1130F703F2E2AE030E0A3010E94E308882E861861
S1130F8045C0853731F4232D2F7EB22E2AE030E080
S1130F9025C0932D997FB92E8F36C1F018F488356A
S1130FA079F0B5C0803719F0883721F0B0C0E92F47
S1130FB0E061BE2EB4FE0DC0FB2DF460BF2E09C04F
S1130FC034FE0AC0292F2660B22E06C028E030E085
S1130FD005C020E130E002C020E132E0F801B7FEB4
S1130FE007C060817181828193810C5F1F4F06C0AD
S1130FF06081718180E090E00E5F1F4FA3010E9429
S1131000E308882E8618FB2DFF773F2E36FE0DC091
S1131010232D2E7FA22E891458F434FE0BC032FCEB
S113102009C0832D8E7EA82E05C0B82CA32C03C026
S1131030B82C01C0B92CA4FE0FC0FE01E80DF11DAF
S11310408081803321F49A2D997EA92E09C0A2FEB5
S113105006C0B394B39404C08A2D867809F0B3947F
S1131060A3FC11C0A0FE06C0B21488F4280C922C74
S11310709B180EC0B21460F4B60180E290E00E94A6
S1131080A708B394F7CFB21418F42B1802C0982C05
S1131090212CA4FE10C0B60180E390E00E94A708B2
S11310A0A2FE17C0A1FC03C088E790E002C088E557
S11310B090E0B6010CC08A2D867859F0A1FE02C0DA
S11310C08BE201C080E2A7FC8DE2B60190E00E94B1
S11310D0A708891438F4B60180E390E00E94A708B9
S11310E09A94F7CF8A94F301E80DF11D8081B6013B
S11310F090E00E94A7088110F5CF222009F442CE87
S1131100B60180E290E00E94A7082A94F6CFF60187
S11311108681978102C08FEF9FEF2B96E2E10C94BA
S11311205D09FC010590615070400110D8F780956D
S113113090958E0F9F1F0895FC016150704001909F
S11311400110D8F7809590958E0F9F1F08950F93E7
S11311501F93CF93DF93FB01238121FD03C08FEF06
S11311609FEF2CC022FF16C0468157812481358110
S11311704217530744F4A081B1819D012F5F3F4F73
S1131180318320838C93268137812F5F3F4F3783B0
S1131190268314C08B01EC01FB010084F185E02D52
S11311A00995892BE1F6D80116968D919C91179794
S11311B0019617969C938E931697CE01DF91CF914B
S11311C01F910F910895FA01AA27283051F1203177
S11311D081F1E8946F936E7F6E5F7F4F8F4F9F4FC7
S11311E0AF4FB1E03ED0B4E03CD0670F781F891F09
S11311F09A1FA11D680F791F8A1F911DA11D6A0FD7
S1131200711D811D911DA11D20D009F468943F9189
S11312102AE0269F11243019305D3193DEF6CF0188
S11312200895462F4770405D4193B3E00FD0C9F74E
S1131230F6CF462F4F70405D4A3318F0495D31FDBB
S11312404052419302D0A9F7EACFB4E0A69597950E
S1131250879577956795BA95C9F7009761057105E4
S113126008959B01AC010A2E06945795479537952E
S11312702795BA95C9F7620F731F841F951FA01D88
S113128008952F923F924F925F926F927F928F9226
S11312909F92AF92BF92CF92DF92EF92FF920F9301
S11312A01F93CF93DF93CDB7DEB7CA1BDB0B0FB60B
S11312B0F894DEBF0FBECDBF09942A8839884888C8
S11312C05F846E847D848C849B84AA84B984C8845E
S11312D0DF80EE80FD800C811B81AA81B981CE0F55
S11312E0D11D0FB6F894DEBF0FBECDBFED0108953A
S10712F0F894FFCF9C
S11312F4012D2D2D2057656C636F6D65202D2D2DCB
S1131304200048656C6C6F20746865726520210048
S1131314546F205069636B2046616E746100456E9E
S11313247465722041312000546F205069636B202E
S113133453707269746500456E746572204132207D
S113134400546F205069636B20436F6B6500456ED6
S11313547465722041332000546F205069636B20FC
S11313644F72656F7300456E7465722042312000BC
S1131374546F205069636B204D616E6A6900456E39
S11313847465722042322000546F205069636B20CC
S113139444696765737469766500456E7465722083
S11313A442332000546F205069636B204861726992
S11313B4626F00456E7465722043312000546F20BF
S11313C45069636B204F7262697400456E74657270
S11313D42043322000546F205069636B20536D61A5
S11313E4727469657300456E74657220433320001A
S11313F44B736820256400526563656976656400EF
S11314045265636569766564203A200050726963A5
S113141465203A2000506179203A00466F72203AE0
S11314242000205069636B204974656D203A2000C4
S11314342052657475726E696E67204368616E67C5
S1131444652000204B7761686572692100546861E6
S11314546E6B20796F75005468616E6B796F7500DB
S11314644974656D205069636B65642020004131C3
S1131474004B7368203135004132004B73682032CD
S113148435004133004B7368203330004231004B44
S11314947368203130004232004B736820313200CB
S11314A44233004331004B7368203230004332002E
S11314B44333004B7368203138004572726F7221D4
S11314C4003D004F4E002D2D2D2D20416C6572746E
S11114D421202D2D2D2D00430042004100004B
S9030000FC
