S017000056656E64696E675F4D616368696E652E737265632E
S11300000C9434000C949C010C94FE010C9460023A
S11300100C9451000C9451000C9451000C94510018
S11300200C9451000C9451000C9451000C94510008
S11300300C9451000C9451000C9451000C945100F8
S11300400C9451000C9451000C9451000C945100E8
S11300500C945100DC05E505EE052506F7050006C0
S11300600906250612061B0611241FBECFE5D8E09B
S1130070DEBFCDBF12E0A0E6B0E0E8EBF2E102C0E3
S113008005900D92A635B107D9F722E0A6E5B2E0B6
S113009001C01D92AB36B207E1F70E942C060C9406
S11300A05A090C94000092B39370282F207F922B4E
S11300B092BB9098919A32E03A95F1F700C09198EA
S11300C0EFE8F1E03197F1F700C0000022B32370AC
S11300D0F0E18F9FC0011124822B82BB919A32E000
S11300E03A95F1F700C091988FE99FE00197F1F7F5
S11300F000C00000089583EF81BB8FE39CE9019762
S1130100F1F700C0000082E00E94530088E20E94E0
S113011053008CE00E94530086E00E94530081E06B
S11301200E9453008FE99FE00197F1F700C000009F
S1130130089592B39F70282F207F922B92BB909AA0
S1130140919A32E03A95F1F700C09198EFE8F1E026
S11301503197F1F700C0000022B32F70F0E18F9FB8
S1130160C0011124822B82BB919A32E03A95F1F7B7
S113017000C091988FE99FE00197F1F700C000005B
S11301800895CF93DF93EC018991882319F00E949D
S11301909900FACFDF91CF910895CF93DF93EC01CB
S11301A08991882361F00E9499002FE788E391E008
S11301B0215080409040E1F700C00000F1CFDF9172
S11301C0CF9108950F931F93CF93DF938C01EB018D
S11301D081E00E94530082E00E945300C8010E9403
S11301E0C10080EC0E945300CE010E94C1002FEF99
S11301F084E39CE0215080409040E1F700C000007F
S1130200DF91CF911F910F91089561E670E082E72D
S113021090E00E94E2002FEF83EC99E021508040AF
S11302209040E1F700C0000063E870E081E990E0ED
S11302300E94E2002FEF83EC99E02150804090402F
S1130240E1F700C000006BE970E08AEA90E00E94E8
S1130250E2002FEF83EC99E0215080409040E1F7D9
S113026000C0000064EB70E081EC90E00E94E200CA
S11302702FEF83EC99E0215080409040E1F700C0DB
S113028000006BEC70E089ED90E00E94E2002FEF3B
S113029083EC99E0215080409040E1F700C00000D9
S11302A063EE70E081EF90E00E94E2002FEF83ECB8
S11302B099E0215080409040E1F700C000006BEFCE
S11302C070E08DE091E00E94E2002FEF83EC99E072
S11302D0215080409040E1F700C0000067E171E0E8
S11302E086E291E00E94E2002FEF83EC99E0215036
S11302F080409040E1F700C0000060E371E08EE3CD
S113030091E00E94E2002FEF83EC99E021508040BD
S11303109040E1F700C0000068E471E089E591E0F5
S11303200E94E2002FEF83EC99E02150804090403E
S1130330E1F700C0000008951F920F920FB60F92CC
S113034011240F931F932F933F934F935F936F93B6
S11303507F938F939F93AF93BF93EF93FF93CF9329
S1130360DF93CDB7DEB72A97DEBFCDBF80915702AA
S1130370813049F5809156028B5F809356021F921B
S11303808F9383E691E09F938F938E010F5F1F4FAE
S11303901F930F930E94700681E00E945300B801DE
S11303A08BE691E00E94E2002FE788E391E0215080
S11303B080409040E1F700C000000F900F900F9034
S11303C00F900F900F902A960FB6F894DEBF0FBED1
S11303D0CDBFDF91CF91FF91EF91BF91AF919F91ED
S11303E08F917F916F915F914F913F912F911F91C9
S11303F00F910F900FBE0F901F9018951F920F92A0
S11304000FB60F9211240F931F932F933F934F9383
S11304105F936F937F938F939F93AF93BF93EF9368
S1130420FF93CF93DF93CDB7DEB72A97DEBFCDBF5F
S113043080915702813049F580915602865F8093FE
S113044056021F928F9383E691E09F938F938E01C0
S11304500F5F1F4F1F930F930E94700681E00E944D
S11304605300B8018BE691E00E94E2002FE788E395
S113047091E0215080409040E1F700C000000F90CF
S11304800F900F900F900F900F902A960FB6F8943C
S1130490DEBF0FBECDBFDF91CF91FF91EF91BF9132
S11304A0AF919F918F917F916F915F914F913F9108
S11304B02F911F910F910F900FBE0F901F901895C1
S11304C01F920F920FB60F9211240F931F932F9325
S11304D03F934F935F936F937F938F939F93AF93C8
S11304E0BF93EF93FF93CF93DF93CDB7DEB72A97F4
S11304F0DEBFCDBF80915702813049F5809156020D
S11305008C5E809356021F928F9383E691E09F93B3
S11305108F938E010F5F1F4F1F930F930E947006DE
S113052081E00E945300B8018BE691E00E94E20052
S11305302FE788E391E0215080409040E1F700C02C
S113054000000F900F900F900F900F900F902A962D
S11305500FB6F894DEBF0FBECDBFDF91CF91FF91F0
S1130560EF91BF91AF919F918F917F916F915F9127
S11305704F913F912F911F910F910F900FBE0F90AC
S11305801F9018950F931F93CF93DF938C01EB016A
S113059081E00E94530082E00E94530081E991E0CF
S11305A00E94C100C8010E94C10080EC0E94530057
S11305B085E791E00E94C100CE01DF91CF911F91A8
S11305C00F910C94C1000F931F93CF93DF938C0171
S11305D0EB0181E00E94530082E00E9453008EE709
S11305E091E00E94CD00C8010E94CD0080EC0E94E1
S11305F0530084E891E00E94CD00CE01DF91CF91B9
S11306001F910F910C94CD000E94050181E00E947E
S1130610530082E00E9453008BE891E00E94C100E5
S113062080EC0E9453001092560281E08093600097
S1130630109257020895CF93DF93EC016BE870E0BA
S11306400E946006892B89F486E022E19BB39227FD
S11306509BBB3FEF49E698E1315040409040E1F7C1
S113066000C00000815091F7D0C063EA70E0CE0171
S11306700E946006892B89F486E022E29BB39227CC
S11306809BBB3FEF49E698E1315040409040E1F791
S113069000C00000815091F7B8C06CEB70E0CE014F
S11306A00E946006892B89F486E022E49BB392279A
S11306B09BBB3FEF49E698E1315040409040E1F761
S11306C000C00000815091F7A0C063ED70E0CE013E
S11306D00E946006892B89F486E024E19BB392276B
S11306E09BBB3FEF49E698E1315040409040E1F731
S11306F000C00000815091F788C06BEE70E0CE011D
S11307000E946006892B89F486E024E29BB3922739
S11307109BBB3FEF49E698E1315040409040E1F700
S113072000C00000815091F770C063E071E0CE0119
S11307300E946006892B89F486E024E49BB3922707
S11307409BBB3FEF49E698E1315040409040E1F7D0
S113075000C00000815091F758C06FE171E0CE01F4
S11307600E946006892B89F486E028E19BB39227D6
S11307709BBB3FEF49E698E1315040409040E1F7A0
S113078000C00000815091F740C068E371E0CE01E1
S11307900E946006892B89F486E028E29BB39227A5
S11307A09BBB3FEF49E698E1315040409040E1F770
S11307B000C00000815091F728C060E571E0CE01CF
S11307C00E946006892B89F486E028E49BB3922773
S11307D09BBB3FEF49E698E1315040409040E1F740
S11307E000C00000815091F710C086E02EE79BB353
S11307F092279BBB3FE74CEF9AE03150404090403A
S1130800E1F700C00000815091F7DF91CF91089586
S1130810AF92BF92CF92DF92EF92FF920F931F930A
S1130820CF93DF93CDB7DEB764970FB6F894DEBFEE
S11308300FBECDBF6C017B012FEF84E39CE0215000
S113084080409040E1F700C0000081E080935702AF
S1130850FF926F9384E691E09F938F935E012BE068
S1130860A20EB11CBF92AF920E9470060F900F901F
S11308700F900F900F900F900091560210E00E15FC
S11308801F0574F4B601C5010E94E3028FEF91EED7
S113089024E0815090402040E1F700C00000ECCFFC
S11308A00E191F091F930F9389E991E09F938F936A
S11308B0CE0101967C019F938F930E947006B7012D
S11308C08BEA91E00E94E2009FEF24E38CE09150D8
S11308D020408040E1F700C00000C6010E941B03D5
S11308E00F900F900F900F900F900F90101611060D
S11308F09CF4B7018CEB91E00E94E2009FEF2DE3A2
S113090089E4915020408040E1F700C0000069EC88
S113091071E083ED91E004C06AEC71E08DED91E04B
S11309200E94E2009FEF2EE984E291502040804033
S1130930E1F700C000000E94040364960FB6F89427
S1130940DEBF0FBECDBFDF91CF911F910F91FF90FE
S1130950EF90DF90CF90BF90AF900895CF93DF9347
S1130960CDB7DEB764970FB6F894DEBF0FBECDBF28
S113097068E572E0CE0101960E94690666E672E0BF
S1130980CE0101960E94550666EE71E0CE010196F5
S11309900E946006892B59F469EE71E08BE890E0BF
S11309A00E94C2026FE070E08BE890E012C060EF3A
S11309B071E0CE0101960E946006892BA1F463EFD9
S11309C071E083EA90E00E94C20269E170E083EA88
S11309D090E064960FB6F894DEBF0FBECDBFDF91F2
S11309E0CF910C9408046AEF71E0CE0101960E9445
S11309F06006892B59F46DEF71E08CEB90E00E9456
S1130A00C2026EE170E08CEB90E0E3CF64E072E050
S1130A10CE0101960E946006892B59F467E072E0CA
S1130A2083ED90E00E94C2026AE070E083ED90E002
S1130A30D0CF6EE072E0CE0101960E946006892B51
S1130A4059F461E172E08BEE90E00E94C2026CE026
S1130A5070E08BEE90E0BDCF68E172E0CE010196CC
S1130A600E946006892B59F469EE71E083E091E0FD
S1130A700E94C2026FE070E083E091E0AACF6BE1D4
S1130A8072E0CE0101960E946006892B59F46EE152
S1130A9072E08FE191E00E94C20264E170E08FE1B4
S1130AA091E097CF65E272E0CE0101960E94600664
S1130AB0892B59F469EE71E088E391E00E94C20247
S1130AC06FE070E088E391E084CF68E272E0CE01E9
S1130AD001960E946006892B59F46BE272E080E56E
S1130AE091E00E94C20262E170E080E591E071CF82
S1130AF062E372E0CB010E94E2002FEF84E39CE00A
S1130B00215080409040E1F700C0000064960FB689
S1130B10F894DEBF0FBECDBFDF91CF910C940403D8
S1130B20CF93DF93EC0169E372E00E946006892BA6
S1130B3021F4DF91CF910C9404036BE372E0CE01B6
S1130B400E946006892B21F40E94AE0481E010C04B
S1130B5080916000813079F410925802BE0188E5DA
S1130B6092E00E94550688E592E00E94C10082E06E
S1130B70809360000FC0823069F410926602BE0157
S1130B8086E692E00E94550686E692E0DF91CF91D8
S1130B900C94C100DF91CF910895E3B3E093640214
S1130BA08E2F90E0FC013597EA30F10508F04DC036
S1130BB0E65DFF4F0C944F068FE697E10197F1F73E
S1130BC000C000008FE492E03EC08FE697E10197F9
S1130BD0F1F700C0000081E592E035C08FE697E1AF
S1130BE00197F1F700C0000083E592E02CC08FE686
S1130BF097E10197F1F700C000008BEF91E023C06B
S1130C008FE697E10197F1F700C0000086E192E0DA
S1130C101AC08FE697E10197F1F700C0000087EE54
S1130C2091E011C08FE697E10197F1F700C0000051
S1130C3089E392E008C08FE697E10197F1F700C0DD
S1130C4000008BE392E00C9490050895D09887E817
S1130C5086B980E487B908951ABA1BBA85B78F603C
S1130C6085BF84B7806484BF8BB7806E8BBF789454
S1130C700E94260614BA15BA8AB38E6F8ABB0E94E4
S1130C807B000E9404030E94CD052FEF83EC99E0C2
S1130C90215080409040E1F700C00000F4CFEE0FF7
S1130CA0FF1F0590F491E02D0994FB01DC010D90E8
S1130CB00020E9F7119701900D920020E1F70895C3
S1130CC0FB01DC018D91019080190110D9F3990B7E
S1130CD00895FB01DC0101900D920020E1F70895D5
S1130CE0AEE0B0E0E6E7F6E00C9431090D891E8928
S1130CF086E08C831A8309838FEF9FE79E838D831D
S1130D00AE01475E5F4F6F89788DCE0101960E94D8
S1130D109206EF81F885E00FF11F10822E96E4E031
S1130D200C944D09ABE0B0E0E8E9F6E00C9423093B
S1130D306C017B018A01FC0117821682838181FF89
S1130D40CCC1CE0101963C01F6019381F70193FDDC
S1130D50859193FF81917F01882309F4BAC185327B
S1130D6039F493FD859193FF81917F01853229F4B4
S1130D70B60190E00E948908E7CF912C212C312CF8
S1130D80FFE1F315D8F08B3279F038F4803279F042
S1130D908332A1F4232D20611DC08D3261F0803394
S1130DA069F4232D216016C0832D8260382EE32D33
S1130DB0E4603E2E2AC0F32DF8601DC037FC2DC020
S1130DC020ED280F2A3040F08E32B9F436FC81C170
S1130DD0232D2064322E19C036FE06C08AE0989E68
S1130DE0200D1124922E11C0EAE02E9E200D112414
S1130DF0222EF32DF0623F2E08C08C3621F4832D71
S1130E008068382E02C0883641F4F70193FD85913D
S1130E1093FF81917F018111B3CF982F9F7D9554CA
S1130E20933028F40C5F1F4F9FE399830DC08336E2
S1130E3031F0833771F0833509F059C021C0F801CE
S1130E40808189830E5F1F4F88248394912C5301E2
S1130E5013C02801F2E04F0E511CF801A080B180AC
S1130E6036FE03C0692D70E002C06FEF7FEFC5014D
S1130E700E947E084C018201F32DFF773F2E16C09D
S1130E80280122E0420E511CF801A080B18036FEF8
S1130E9003C0692D70E002C06FEF7FEFC5010E94AF
S1130EA073084C01F32DF0683F2E820133FC1BC004
S1130EB0822D90E088169906B0F4B60180E290E0A5
S1130EC00E9489082A94F4CFF50137FC859137FEF6
S1130ED081915F01B60190E00E94890821102A9453
S1130EE021E0821A91088114910471F7E8C08436D4
S1130EF011F0893641F5F80137FE07C06081718130
S1130F00828193810C5F1F4F08C060817181072E1D
S1130F10000C880B990B0E5F1F4FF32DFF763F2EAD
S1130F2097FF09C090958095709561957F4F8F4F7D
S1130F309F4FF0683F2E2AE030E0A3010E94C508CD
S1130F40882E861845C0853731F4232D2F7EB22E86
S1130F502AE030E025C0932D997FB92E8F36C1F059
S1130F6018F4883579F0B5C0803719F0883721F046
S1130F70B0C0E92FE061BE2EB4FE0DC0FB2DF460BD
S1130F80BF2E09C034FE0AC0292F2660B22E06C027
S1130F9028E030E005C020E130E002C020E132E08A
S1130FA0F801B7FE07C060817181828193810C5F73
S1130FB01F4F06C06081718180E090E00E5F1F4F7B
S1130FC0A3010E94C508882E8618FB2DFF773F2EAB
S1130FD036FE0DC0232D2E7FA22E891458F434FE24
S1130FE00BC032FC09C0832D8E7EA82E05C0B82C00
S1130FF0A32C03C0B82C01C0B92CA4FE0FC0FE0161
S1131000E80DF11D8081803321F49A2D997EA92E5B
S113101009C0A2FE06C0B394B39404C08A2D867896
S113102009F0B394A3FC11C0A0FE06C0B21488F466
S1131030280C922C9B180EC0B21460F4B60180E206
S113104090E00E948908B394F7CFB21418F42B18D7
S113105002C0982C212CA4FE10C0B60180E390E0BD
S11310600E948908A2FE17C0A1FC03C088E790E093
S113107002C088E590E0B6010CC08A2D867859F04C
S1131080A1FE02C08BE201C080E2A7FC8DE2B601A2
S113109090E00E948908891438F4B60180E390E056
S11310A00E9489089A94F7CF8A94F301E80DF11D00
S11310B08081B60190E00E9489088110F5CF22203A
S11310C009F442CEB60180E290E00E9489082A9495
S11310D0F6CFF6018681978102C08FEF9FEF2B96A2
S11310E0E2E10C943F09FC0105906150704001104D
S11310F0D8F7809590958E0F9F1F0895FC0161503D
S1131100704001900110D8F7809590958E0F9F1F25
S113111008950F931F93CF93DF93FB01238121FD48
S113112003C08FEF9FEF2CC022FF16C0468157816A
S1131130248135814217530744F4A081B1819D0174
S11311402F5F3F4F318320838C93268137812F5F1C
S11311503F4F3783268314C08B01EC01FB010084CD
S1131160F185E02D0995892BE1F6D80116968D912C
S11311709C911797019617969C938E931697CE0180
S1131180DF91CF911F910F910895FA01AA2728307A
S113119051F1203181F1E8946F936E7F6E5F7F4F40
S11311A08F4F9F4FAF4FB1E03ED0B4E03CD0670FBC
S11311B0781F891F9A1FA11D680F791F8A1F911D0F
S11311C0A11D6A0F711D811D911DA11D20D009F45F
S11311D068943F912AE0269F11243019305D3193A1
S11311E0DEF6CF010895462F4770405D4193B3E08A
S11311F00FD0C9F7F6CF462F4F70405D4A3318F031
S1131200495D31FD4052419302D0A9F7EACFB4E0E1
S1131210A6959795879577956795BA95C9F7009799
S11312206105710508959B01AC010A2E069457953A
S1131230479537952795BA95C9F7620F731F841F91
S1131240951FA01D08952F923F924F925F926F9227
S11312507F928F929F92AF92BF92CF92DF92EF9242
S1131260FF920F931F93CF93DF93CDB7DEB7CA1BC3
S1131270DB0B0FB6F894DEBF0FBECDBF09942A88EE
S1131280398848885F846E847D848C849B84AA8496
S1131290B984C884DF80EE80FD800C811B81AA8123
S11312A0B981CE0FD11D0FB6F894DEBF0FBECDBFEE
S10B12B0ED010895F894FFCF4D
S11312B8012D2D2D2057656C636F6D65202D2D2D07
S11312C82000202048656C6C6F2074686572652165
S11312D8202000546F205069636B2046616E74614E
S11312E800456E7465722041312000546F205069A6
S11312F8636B2053707269746500456E746572205F
S113130841322000546F205069636B20436F6B6532
S113131800456E7465722041332000546F20506973
S1131328636B204F72656F7300456E74657220425B
S1131338312000546F205069636B204D616E6A69D7
S113134800456E7465722042322000546F20506943
S1131358636B2044696765737469766500456E74C8
S113136865722042332000546F205069636B204813
S1131378617269626F00456E7465722043312000A2
S1131388546F205069636B204F7262697400456E14
S11313987465722043322000546F205069636B20B7
S11313A8536D61727469657300456E746572204388
S11313B8332000204B736820256400205265636540
S11313C869766564005072696365203A200050614B
S11313D879203A00466F72203A2000205069636BE6
S11313E8204974656D203A200042616C616E636522
S11313F8203A204B73682020256400446973706583
S11314086E73696E67202E2E2E2020005069636B40
S1131418204368616E67652000204B7761686572B8
S11314286921005468616E6B20796F750054686196
S11314386E6B796F75004131004B7368203135004C
S11314484132004B7368203235004133004B7368D6
S1131458203330004231004B73682031300042326F
S1131468004B7368203132004233004331004B7320
S113147868203230004332004333004B7368203114
S113148838004572726F7221003D004F4E002D2DB9
S11314982D2D20416C65727421202D2D2D2D004396
S10914A8004200410000B7
S9030000FC
